{
  "_format": "hh-sol-artifact-1",
  "contractName": "Vault",
  "sourceName": "contracts/Vault.sol",
  "abi": [
    {
      "inputs": [],
      "name": "FundsLocked",
      "type": "error"
    },
    {
      "inputs": [],
      "name": "InsufficientFunds",
      "type": "error"
    },
    {
      "inputs": [],
      "name": "UnAuthorized",
      "type": "error"
    },
    {
      "inputs": [],
      "name": "WithdrawalError",
      "type": "error"
    },
    {
      "inputs": [],
      "name": "LOCK_TIME",
      "outputs": [
        {
          "internalType": "uint256",
          "name": "",
          "type": "uint256"
        }
      ],
      "stateMutability": "view",
      "type": "function"
    },
    {
      "inputs": [],
      "name": "donate",
      "outputs": [],
      "stateMutability": "payable",
      "type": "function"
    },
    {
      "inputs": [
        {
          "internalType": "address",
          "name": "",
          "type": "address"
        }
      ],
      "name": "donors",
      "outputs": [
        {
          "internalType": "address",
          "name": "donor",
          "type": "address"
        },
        {
          "internalType": "uint256",
          "name": "amount",
          "type": "uint256"
        },
        {
          "internalType": "uint256",
          "name": "timeOfFirstDonation",
          "type": "uint256"
        },
        {
          "internalType": "bool",
          "name": "exists",
          "type": "bool"
        },
        {
          "internalType": "enum IVAULT.State",
          "name": "state",
          "type": "uint8"
        }
      ],
      "stateMutability": "view",
      "type": "function"
    },
    {
      "inputs": [],
      "name": "withdraw",
      "outputs": [],
      "stateMutability": "nonpayable",
      "type": "function"
    }
  ],
  "bytecode": "0x6080604052348015600f57600080fd5b506109bf8061001f6000396000f3fe60806040526004361061003f5760003560e01c80633ccfd60b14610044578063413d9c3a1461005b578063ca0cdea814610086578063ed88c68e146100c7575b600080fd5b34801561005057600080fd5b506100596100d1565b005b34801561006757600080fd5b506100706103f8565b60405161007d9190610741565b60405180910390f35b34801561009257600080fd5b506100ad60048036038101906100a891906107bf565b6103ff565b6040516100be95949392919061088d565b60405180910390f35b6100cf61046f565b005b6000803373ffffffffffffffffffffffffffffffffffffffff1673ffffffffffffffffffffffffffffffffffffffff16815260200190815260200160002060030160009054906101000a900460ff16610156576040517fbe24598300000000000000000000000000000000000000000000000000000000815260040160405180910390fd5b4262278d006000803373ffffffffffffffffffffffffffffffffffffffff1673ffffffffffffffffffffffffffffffffffffffff168152602001908152602001600020600201546101a7919061090f565b11156101df576040517f437b039200000000000000000000000000000000000000000000000000000000815260040160405180910390fd5b60008060003373ffffffffffffffffffffffffffffffffffffffff1673ffffffffffffffffffffffffffffffffffffffff168152602001908152602001600020600101540361025a576040517f356680b700000000000000000000000000000000000000000000000000000000815260040160405180910390fd5b60008060003373ffffffffffffffffffffffffffffffffffffffff1673ffffffffffffffffffffffffffffffffffffffff16815260200190815260200160002060010154905060008060003373ffffffffffffffffffffffffffffffffffffffff1673ffffffffffffffffffffffffffffffffffffffff1681526020019081526020016000206001018190555060016000803373ffffffffffffffffffffffffffffffffffffffff1673ffffffffffffffffffffffffffffffffffffffff16815260200190815260200160002060030160016101000a81548160ff0219169083600181111561034c5761034b610816565b5b021790555060003373ffffffffffffffffffffffffffffffffffffffff168260405161037790610974565b60006040518083038185875af1925050503d80600081146103b4576040519150601f19603f3d011682016040523d82523d6000602084013e6103b9565b606091505b50509050806103f4576040517f9e0eb9f500000000000000000000000000000000000000000000000000000000815260040160405180910390fd5b5050565b62278d0081565b60006020528060005260406000206000915090508060000160009054906101000a900473ffffffffffffffffffffffffffffffffffffffff16908060010154908060020154908060030160009054906101000a900460ff16908060030160019054906101000a900460ff16905085565b6000803373ffffffffffffffffffffffffffffffffffffffff1673ffffffffffffffffffffffffffffffffffffffff16815260200190815260200160002060030160009054906101000a900460ff16156105e0576001808111156104d6576104d5610816565b5b6000803373ffffffffffffffffffffffffffffffffffffffff1673ffffffffffffffffffffffffffffffffffffffff16815260200190815260200160002060030160019054906101000a900460ff16600181111561053757610536610816565b5b0361058357426000803373ffffffffffffffffffffffffffffffffffffffff1673ffffffffffffffffffffffffffffffffffffffff168152602001908152602001600020600201819055505b346000803373ffffffffffffffffffffffffffffffffffffffff1673ffffffffffffffffffffffffffffffffffffffff16815260200190815260200160002060010160008282546105d4919061090f565b92505081905550610726565b60006040518060a001604052803373ffffffffffffffffffffffffffffffffffffffff1681526020013481526020014281526020016001151581526020016000600181111561063257610631610816565b5b8152509050806000803373ffffffffffffffffffffffffffffffffffffffff1673ffffffffffffffffffffffffffffffffffffffff16815260200190815260200160002060008201518160000160006101000a81548173ffffffffffffffffffffffffffffffffffffffff021916908373ffffffffffffffffffffffffffffffffffffffff160217905550602082015181600101556040820151816002015560608201518160030160006101000a81548160ff02191690831515021790555060808201518160030160016101000a81548160ff0219169083600181111561071c5761071b610816565b5b0217905550905050505b565b6000819050919050565b61073b81610728565b82525050565b60006020820190506107566000830184610732565b92915050565b600080fd5b600073ffffffffffffffffffffffffffffffffffffffff82169050919050565b600061078c82610761565b9050919050565b61079c81610781565b81146107a757600080fd5b50565b6000813590506107b981610793565b92915050565b6000602082840312156107d5576107d461075c565b5b60006107e3848285016107aa565b91505092915050565b6107f581610781565b82525050565b60008115159050919050565b610810816107fb565b82525050565b7f4e487b7100000000000000000000000000000000000000000000000000000000600052602160045260246000fd5b6002811061085657610855610816565b5b50565b600081905061086782610845565b919050565b600061087782610859565b9050919050565b6108878161086c565b82525050565b600060a0820190506108a260008301886107ec565b6108af6020830187610732565b6108bc6040830186610732565b6108c96060830185610807565b6108d6608083018461087e565b9695505050505050565b7f4e487b7100000000000000000000000000000000000000000000000000000000600052601160045260246000fd5b600061091a82610728565b915061092583610728565b925082820190508082111561093d5761093c6108e0565b5b92915050565b600081905092915050565b50565b600061095e600083610943565b91506109698261094e565b600082019050919050565b600061097f82610951565b915081905091905056fea2646970667358221220bcef7d53835451ca3bb39795a30703573685d2a17dc2c09b66c8310ef0ccd56364736f6c634300081c0033",
  "linkReferences": {},
  "deployedLinkReferences": {}
}